{
  "_format": "hh-sol-artifact-1",
  "contractName": "FarmingPoolManager",
  "sourceName": "contracts/FarmingPoolManager.sol",
  "abi": [
    {
      "inputs": [],
      "stateMutability": "nonpayable",
      "type": "constructor"
    },
    {
      "anonymous": false,
      "inputs": [
        {
          "indexed": false,
          "internalType": "uint256",
          "name": "poolId",
          "type": "uint256"
        },
        {
          "indexed": false,
          "internalType": "address",
          "name": "poolOwner",
          "type": "address"
        },
        {
          "indexed": false,
          "internalType": "address",
          "name": "lpTokenAddress",
          "type": "address"
        },
        {
          "indexed": false,
          "internalType": "address",
          "name": "rewardTokenAddress",
          "type": "address"
        },
        {
          "indexed": false,
          "internalType": "uint256",
          "name": "startBlock",
          "type": "uint256"
        },
        {
          "indexed": false,
          "internalType": "uint256",
          "name": "endBlock",
          "type": "uint256"
        },
        {
          "indexed": false,
          "internalType": "uint256",
          "name": "rewardRate",
          "type": "uint256"
        }
      ],
      "name": "PoolCreated",
      "type": "event"
    },
    {
      "inputs": [],
      "name": "admin",
      "outputs": [
        {
          "internalType": "address",
          "name": "",
          "type": "address"
        }
      ],
      "stateMutability": "view",
      "type": "function"
    },
    {
      "inputs": [
        {
          "internalType": "uint256",
          "name": "poolId",
          "type": "uint256"
        }
      ],
      "name": "claimReward",
      "outputs": [],
      "stateMutability": "nonpayable",
      "type": "function"
    },
    {
      "inputs": [
        {
          "components": [
            {
              "internalType": "address",
              "name": "lpTokenAddress",
              "type": "address"
            },
            {
              "internalType": "address",
              "name": "rewardTokenAddress",
              "type": "address"
            },
            {
              "internalType": "uint256",
              "name": "startBlock",
              "type": "uint256"
            },
            {
              "internalType": "uint256",
              "name": "endBlock",
              "type": "uint256"
            },
            {
              "internalType": "uint256",
              "name": "rewardRate",
              "type": "uint256"
            }
          ],
          "internalType": "struct FarmingPoolManager.FarmConfig",
          "name": "config",
          "type": "tuple"
        }
      ],
      "name": "createPool",
      "outputs": [],
      "stateMutability": "nonpayable",
      "type": "function"
    },
    {
      "inputs": [
        {
          "internalType": "uint256",
          "name": "poolId",
          "type": "uint256"
        }
      ],
      "name": "emergencyWithdraw",
      "outputs": [],
      "stateMutability": "nonpayable",
      "type": "function"
    },
    {
      "inputs": [
        {
          "internalType": "uint256",
          "name": "poolId",
          "type": "uint256"
        },
        {
          "internalType": "uint256",
          "name": "additionalRewardAmount",
          "type": "uint256"
        }
      ],
      "name": "extendPoolPeriod",
      "outputs": [],
      "stateMutability": "nonpayable",
      "type": "function"
    },
    {
      "inputs": [
        {
          "internalType": "uint256",
          "name": "poolId",
          "type": "uint256"
        }
      ],
      "name": "getAccRewardPerShare",
      "outputs": [
        {
          "internalType": "uint256",
          "name": "",
          "type": "uint256"
        }
      ],
      "stateMutability": "view",
      "type": "function"
    },
    {
      "inputs": [
        {
          "internalType": "uint256",
          "name": "poolId",
          "type": "uint256"
        }
      ],
      "name": "getPoolConfig",
      "outputs": [
        {
          "components": [
            {
              "internalType": "address",
              "name": "lpTokenAddress",
              "type": "address"
            },
            {
              "internalType": "address",
              "name": "rewardTokenAddress",
              "type": "address"
            },
            {
              "internalType": "uint256",
              "name": "startBlock",
              "type": "uint256"
            },
            {
              "internalType": "uint256",
              "name": "endBlock",
              "type": "uint256"
            },
            {
              "internalType": "uint256",
              "name": "rewardRate",
              "type": "uint256"
            }
          ],
          "internalType": "struct FarmingPoolManager.FarmConfig",
          "name": "",
          "type": "tuple"
        }
      ],
      "stateMutability": "view",
      "type": "function"
    },
    {
      "inputs": [],
      "name": "getPoolCount",
      "outputs": [
        {
          "internalType": "uint256",
          "name": "",
          "type": "uint256"
        }
      ],
      "stateMutability": "view",
      "type": "function"
    },
    {
      "inputs": [
        {
          "internalType": "uint256",
          "name": "poolId",
          "type": "uint256"
        }
      ],
      "name": "getPoolLastRewardBlock",
      "outputs": [
        {
          "internalType": "uint256",
          "name": "",
          "type": "uint256"
        }
      ],
      "stateMutability": "view",
      "type": "function"
    },
    {
      "inputs": [
        {
          "internalType": "uint256",
          "name": "poolId",
          "type": "uint256"
        }
      ],
      "name": "getRewardTokenBalance",
      "outputs": [
        {
          "internalType": "uint256",
          "name": "",
          "type": "uint256"
        }
      ],
      "stateMutability": "view",
      "type": "function"
    },
    {
      "inputs": [
        {
          "internalType": "uint256",
          "name": "poolId",
          "type": "uint256"
        }
      ],
      "name": "getTotalStakedAmount",
      "outputs": [
        {
          "internalType": "uint256",
          "name": "",
          "type": "uint256"
        }
      ],
      "stateMutability": "view",
      "type": "function"
    },
    {
      "inputs": [
        {
          "internalType": "uint256",
          "name": "poolId",
          "type": "uint256"
        },
        {
          "internalType": "address",
          "name": "user",
          "type": "address"
        }
      ],
      "name": "getUserRewardDebt",
      "outputs": [
        {
          "internalType": "uint256",
          "name": "",
          "type": "uint256"
        }
      ],
      "stateMutability": "view",
      "type": "function"
    },
    {
      "inputs": [
        {
          "internalType": "uint256",
          "name": "poolId",
          "type": "uint256"
        },
        {
          "internalType": "address",
          "name": "user",
          "type": "address"
        }
      ],
      "name": "getUserStakedAmount",
      "outputs": [
        {
          "internalType": "uint256",
          "name": "",
          "type": "uint256"
        }
      ],
      "stateMutability": "view",
      "type": "function"
    },
    {
      "inputs": [],
      "name": "poolCount",
      "outputs": [
        {
          "internalType": "uint256",
          "name": "",
          "type": "uint256"
        }
      ],
      "stateMutability": "view",
      "type": "function"
    },
    {
      "inputs": [
        {
          "internalType": "uint256",
          "name": "",
          "type": "uint256"
        }
      ],
      "name": "pools",
      "outputs": [
        {
          "internalType": "address",
          "name": "poolOwner",
          "type": "address"
        },
        {
          "internalType": "uint256",
          "name": "accRewardPerShare",
          "type": "uint256"
        },
        {
          "internalType": "uint256",
          "name": "totalLPTokenAmount",
          "type": "uint256"
        },
        {
          "internalType": "uint256",
          "name": "lastRewardBlock",
          "type": "uint256"
        },
        {
          "internalType": "contract ERC20",
          "name": "RewardToken",
          "type": "address"
        },
        {
          "internalType": "contract ERC20",
          "name": "LPToken",
          "type": "address"
        },
        {
          "components": [
            {
              "internalType": "address",
              "name": "lpTokenAddress",
              "type": "address"
            },
            {
              "internalType": "address",
              "name": "rewardTokenAddress",
              "type": "address"
            },
            {
              "internalType": "uint256",
              "name": "startBlock",
              "type": "uint256"
            },
            {
              "internalType": "uint256",
              "name": "endBlock",
              "type": "uint256"
            },
            {
              "internalType": "uint256",
              "name": "rewardRate",
              "type": "uint256"
            }
          ],
          "internalType": "struct FarmingPoolManager.FarmConfig",
          "name": "config",
          "type": "tuple"
        }
      ],
      "stateMutability": "view",
      "type": "function"
    },
    {
      "inputs": [
        {
          "internalType": "uint256",
          "name": "poolId",
          "type": "uint256"
        },
        {
          "internalType": "uint256",
          "name": "amount",
          "type": "uint256"
        }
      ],
      "name": "stake",
      "outputs": [],
      "stateMutability": "nonpayable",
      "type": "function"
    },
    {
      "inputs": [
        {
          "internalType": "uint256",
          "name": "poolId",
          "type": "uint256"
        },
        {
          "internalType": "uint256",
          "name": "amount",
          "type": "uint256"
        }
      ],
      "name": "unstake",
      "outputs": [],
      "stateMutability": "nonpayable",
      "type": "function"
    }
  ],
  "bytecode": "0x6080604052348015600f57600080fd5b50600160008190555033600160006101000a81548173ffffffffffffffffffffffffffffffffffffffff021916908373ffffffffffffffffffffffffffffffffffffffff16021790555060006002819055506129b2806100706000396000f3fe608060405234801561001057600080fd5b506004361061010b5760003560e01c80639e2c8a5b116100a2578063ddef02b811610071578063ddef02b8146102cc578063e173988d146102fc578063e863d0d31461032c578063f525cb681461035c578063f851a4401461037a5761010b565b80639e2c8a5b1461022e578063ac4afa381461024a578063ae169a5014610280578063d13d82581461029c5761010b565b80637b0472f0116100de5780637b0472f0146101a85780638eec5d70146101c4578063919078b4146101e257806391ab5c31146101fe5761010b565b8063012057af146101105780635312ea8e1461014057806357499a391461015c5780635a18ef441461018c575b600080fd5b61012a60048036038101906101259190611bdd565b610398565b6040516101379190611c2c565b60405180910390f35b61015a60048036038101906101559190611c47565b6103f6565b005b61017660048036038101906101719190611c47565b6105a3565b6040516101839190611c2c565b60405180910390f35b6101a660048036038101906101a19190611d91565b6105c3565b005b6101c260048036038101906101bd9190611dbe565b6108f1565b005b6101cc610bbe565b6040516101d99190611c2c565b60405180910390f35b6101fc60048036038101906101f79190611dbe565b610bc8565b005b61021860048036038101906102139190611c47565b610d11565b6040516102259190611e84565b60405180910390f35b61024860048036038101906102439190611dbe565b610e0b565b005b610264600480360381019061025f9190611c47565b61107c565b6040516102779796959493929190611f0d565b60405180910390f35b61029a60048036038101906102959190611c47565b6111f2565b005b6102b660048036038101906102b19190611bdd565b61135d565b6040516102c39190611c2c565b60405180910390f35b6102e660048036038101906102e19190611c47565b6113bb565b6040516102f39190611c2c565b60405180910390f35b61031660048036038101906103119190611c47565b6113db565b6040516103239190611c2c565b60405180910390f35b61034660048036038101906103419190611c47565b611494565b6040516103539190611c2c565b60405180910390f35b6103646114b4565b6040516103719190611c2c565b60405180910390f35b6103826114ba565b60405161038f9190611f7d565b60405180910390f35b600060036000848152602001908152602001600020600c0160008373ffffffffffffffffffffffffffffffffffffffff1673ffffffffffffffffffffffffffffffffffffffff16815260200190815260200160002054905092915050565b6103fe6114e0565b6000600360008381526020019081526020016000209050600081600b0160003373ffffffffffffffffffffffffffffffffffffffff1673ffffffffffffffffffffffffffffffffffffffff1681526020019081526020016000205490506000811161049e576040517f08c379a000000000000000000000000000000000000000000000000000000000815260040161049590611ff5565b60405180910390fd5b600082600b0160003373ffffffffffffffffffffffffffffffffffffffff1673ffffffffffffffffffffffffffffffffffffffff16815260200190815260200160002081905550808260020160008282546104f99190612044565b92505081905550600082600c0160003373ffffffffffffffffffffffffffffffffffffffff1673ffffffffffffffffffffffffffffffffffffffff1681526020019081526020016000208190555061059633828460050160009054906101000a900473ffffffffffffffffffffffffffffffffffffffff1673ffffffffffffffffffffffffffffffffffffffff1661152f9092919063ffffffff16565b50506105a06115b5565b50565b600060036000838152602001908152602001600020600301549050919050565b806060015181604001511061060d576040517f08c379a0000000000000000000000000000000000000000000000000000000008152600401610604906120c4565b60405180910390fd5b6000816080015111610654576040517f08c379a000000000000000000000000000000000000000000000000000000000815260040161064b90612130565b60405180910390fd5b60006003600060025481526020019081526020016000209050338160000160006101000a81548173ffffffffffffffffffffffffffffffffffffffff021916908373ffffffffffffffffffffffffffffffffffffffff160217905550818160060160008201518160000160006101000a81548173ffffffffffffffffffffffffffffffffffffffff021916908373ffffffffffffffffffffffffffffffffffffffff16021790555060208201518160010160006101000a81548173ffffffffffffffffffffffffffffffffffffffff021916908373ffffffffffffffffffffffffffffffffffffffff160217905550604082015181600201556060820151816003015560808201518160040155905050600081600101819055508160400151816003018190555081600001518160050160006101000a81548173ffffffffffffffffffffffffffffffffffffffff021916908373ffffffffffffffffffffffffffffffffffffffff16021790555081602001518160040160006101000a81548173ffffffffffffffffffffffffffffffffffffffff021916908373ffffffffffffffffffffffffffffffffffffffff1602179055506002600081548092919061081c90612150565b919050555061089433308460400151856060015161083a9190612044565b85608001516108499190612198565b8460040160009054906101000a900473ffffffffffffffffffffffffffffffffffffffff1673ffffffffffffffffffffffffffffffffffffffff166115bf909392919063ffffffff16565b7ffaa88043e191d038f4479816a3808d1597f728d52b2dd3c21467aa1b45322fdb60025433846000015185602001518660400151876060015188608001516040516108e597969594939291906121da565b60405180910390a15050565b6108f96114e0565b6000600360008481526020019081526020016000209050806006016002015443101561095a576040517f08c379a000000000000000000000000000000000000000000000000000000000815260040161095190612295565b60405180910390fd5b806006016003015443106109a3576040517f08c379a000000000000000000000000000000000000000000000000000000000815260040161099a90612301565b60405180910390fd5b600082116109e6576040517f08c379a00000000000000000000000000000000000000000000000000000000081526004016109dd9061236d565b60405180910390fd5b6109ef83611648565b600081600b0160003373ffffffffffffffffffffffffffffffffffffffff1673ffffffffffffffffffffffffffffffffffffffff168152602001908152602001600020541115610a4457610a438333611720565b5b610a953330848460050160009054906101000a900473ffffffffffffffffffffffffffffffffffffffff1673ffffffffffffffffffffffffffffffffffffffff166115bf909392919063ffffffff16565b8181600b0160003373ffffffffffffffffffffffffffffffffffffffff1673ffffffffffffffffffffffffffffffffffffffff1681526020019081526020016000206000828254610ae6919061238d565b9250508190555081816002016000828254610b01919061238d565b92505081905550670de0b6b3a7640000816001015482600b0160003373ffffffffffffffffffffffffffffffffffffffff1673ffffffffffffffffffffffffffffffffffffffff16815260200190815260200160002054610b629190612198565b610b6c91906123f0565b81600c0160003373ffffffffffffffffffffffffffffffffffffffff1673ffffffffffffffffffffffffffffffffffffffff1681526020019081526020016000208190555050610bba6115b5565b5050565b6000600254905090565b816003600082815260200190815260200160002060000160009054906101000a900473ffffffffffffffffffffffffffffffffffffffff1673ffffffffffffffffffffffffffffffffffffffff163373ffffffffffffffffffffffffffffffffffffffff1614610c6d576040517f08c379a0000000000000000000000000000000000000000000000000000000008152600401610c6490612493565b60405180910390fd5b6000600360008581526020019081526020016000209050610cd53330858460040160009054906101000a900473ffffffffffffffffffffffffffffffffffffffff1673ffffffffffffffffffffffffffffffffffffffff166115bf909392919063ffffffff16565b6000816006016004015484610cea91906123f0565b905080826006016003016000828254610d03919061238d565b925050819055505050505050565b610d19611adf565b600360008381526020019081526020016000206006016040518060a00160405290816000820160009054906101000a900473ffffffffffffffffffffffffffffffffffffffff1673ffffffffffffffffffffffffffffffffffffffff1673ffffffffffffffffffffffffffffffffffffffff1681526020016001820160009054906101000a900473ffffffffffffffffffffffffffffffffffffffff1673ffffffffffffffffffffffffffffffffffffffff1673ffffffffffffffffffffffffffffffffffffffff16815260200160028201548152602001600382015481526020016004820154815250509050919050565b610e136114e0565b600060036000848152602001908152602001600020905060008211610e6d576040517f08c379a0000000000000000000000000000000000000000000000000000000008152600401610e649061236d565b60405180910390fd5b8181600b0160003373ffffffffffffffffffffffffffffffffffffffff1673ffffffffffffffffffffffffffffffffffffffff168152602001908152602001600020541015610ef1576040517f08c379a0000000000000000000000000000000000000000000000000000000008152600401610ee8906124ff565b60405180910390fd5b610efa83611648565b610f048333611720565b8181600b0160003373ffffffffffffffffffffffffffffffffffffffff1673ffffffffffffffffffffffffffffffffffffffff1681526020019081526020016000206000828254610f559190612044565b9250508190555081816002016000828254610f709190612044565b92505081905550610fc633838360050160009054906101000a900473ffffffffffffffffffffffffffffffffffffffff1673ffffffffffffffffffffffffffffffffffffffff1661152f9092919063ffffffff16565b670de0b6b3a7640000816001015482600b0160003373ffffffffffffffffffffffffffffffffffffffff1673ffffffffffffffffffffffffffffffffffffffff168152602001908152602001600020546110209190612198565b61102a91906123f0565b81600c0160003373ffffffffffffffffffffffffffffffffffffffff1673ffffffffffffffffffffffffffffffffffffffff16815260200190815260200160002081905550506110786115b5565b5050565b60036020528060005260406000206000915090508060000160009054906101000a900473ffffffffffffffffffffffffffffffffffffffff16908060010154908060020154908060030154908060040160009054906101000a900473ffffffffffffffffffffffffffffffffffffffff16908060050160009054906101000a900473ffffffffffffffffffffffffffffffffffffffff1690806006016040518060a00160405290816000820160009054906101000a900473ffffffffffffffffffffffffffffffffffffffff1673ffffffffffffffffffffffffffffffffffffffff1673ffffffffffffffffffffffffffffffffffffffff1681526020016001820160009054906101000a900473ffffffffffffffffffffffffffffffffffffffff1673ffffffffffffffffffffffffffffffffffffffff1673ffffffffffffffffffffffffffffffffffffffff1681526020016002820154815260200160038201548152602001600482015481525050905087565b6111fa6114e0565b6000600360008381526020019081526020016000209050600081600b0160003373ffffffffffffffffffffffffffffffffffffffff1673ffffffffffffffffffffffffffffffffffffffff1681526020019081526020016000205411611295576040517f08c379a000000000000000000000000000000000000000000000000000000000815260040161128c9061256b565b60405180910390fd5b61129e82611648565b6112a88233611720565b670de0b6b3a7640000816001015482600b0160003373ffffffffffffffffffffffffffffffffffffffff1673ffffffffffffffffffffffffffffffffffffffff168152602001908152602001600020546113029190612198565b61130c91906123f0565b81600c0160003373ffffffffffffffffffffffffffffffffffffffff1673ffffffffffffffffffffffffffffffffffffffff168152602001908152602001600020819055505061135a6115b5565b50565b600060036000848152602001908152602001600020600b0160008373ffffffffffffffffffffffffffffffffffffffff1673ffffffffffffffffffffffffffffffffffffffff16815260200190815260200160002054905092915050565b600060036000838152602001908152602001600020600201549050919050565b60006003600083815260200190815260200160002060040160009054906101000a900473ffffffffffffffffffffffffffffffffffffffff1673ffffffffffffffffffffffffffffffffffffffff166370a08231306040518263ffffffff1660e01b815260040161144c9190611f7d565b602060405180830381865afa158015611469573d6000803e3d6000fd5b505050506040513d601f19601f8201168201806040525081019061148d91906125a0565b9050919050565b600060036000838152602001908152602001600020600101549050919050565b60025481565b600160009054906101000a900473ffffffffffffffffffffffffffffffffffffffff1681565b600260005403611525576040517f08c379a000000000000000000000000000000000000000000000000000000000815260040161151c90612619565b60405180910390fd5b6002600081905550565b6115b08363a9059cbb60e01b848460405160240161154e929190612639565b604051602081830303815290604052907bffffffffffffffffffffffffffffffffffffffffffffffffffffffff19166020820180517bffffffffffffffffffffffffffffffffffffffffffffffffffffffff838183161783525050505061184a565b505050565b6001600081905550565b611642846323b872dd60e01b8585856040516024016115e093929190612662565b604051602081830303815290604052907bffffffffffffffffffffffffffffffffffffffffffffffffffffffff19166020820180517bffffffffffffffffffffffffffffffffffffffffffffffffffffffff838183161783525050505061184a565b50505050565b6000600360008381526020019081526020016000209050600081600601600301544311611675574361167e565b81600601600301545b90508160030154811161169257505061171d565b60008260030154826116a49190612044565b905060008360060160040154826116bb9190612198565b905082846003018190555060008460020154036116db575050505061171d565b8360020154670de0b6b3a7640000826116f49190612198565b6116fe91906123f0565b846001016000828254611711919061238d565b92505081905550505050505b50565b6000600360008481526020019081526020016000209050600081600c0160008473ffffffffffffffffffffffffffffffffffffffff1673ffffffffffffffffffffffffffffffffffffffff16815260200190815260200160002054670de0b6b3a7640000836001015484600b0160008773ffffffffffffffffffffffffffffffffffffffff1673ffffffffffffffffffffffffffffffffffffffff168152602001908152602001600020546117d59190612198565b6117df91906123f0565b6117e99190612044565b905060008111156118445761184383828460040160009054906101000a900473ffffffffffffffffffffffffffffffffffffffff1673ffffffffffffffffffffffffffffffffffffffff1661152f9092919063ffffffff16565b5b50505050565b60006118ac826040518060400160405280602081526020017f5361666545524332303a206c6f772d6c6576656c2063616c6c206661696c65648152508573ffffffffffffffffffffffffffffffffffffffff166119129092919063ffffffff16565b90506000815114806118ce5750808060200190518101906118cd91906126d1565b5b61190d576040517f08c379a000000000000000000000000000000000000000000000000000000000815260040161190490612770565b60405180910390fd5b505050565b6060611921848460008561192a565b90509392505050565b60608247101561196f576040517f08c379a000000000000000000000000000000000000000000000000000000000815260040161196690612802565b60405180910390fd5b6000808673ffffffffffffffffffffffffffffffffffffffff1685876040516119989190612893565b60006040518083038185875af1925050503d80600081146119d5576040519150601f19603f3d011682016040523d82523d6000602084013e6119da565b606091505b50915091506119eb878383876119f7565b92505050949350505050565b60608315611a59576000835103611a5157611a1185611a6c565b611a50576040517f08c379a0000000000000000000000000000000000000000000000000000000008152600401611a47906128f6565b60405180910390fd5b5b829050611a64565b611a638383611a8f565b5b949350505050565b6000808273ffffffffffffffffffffffffffffffffffffffff163b119050919050565b600082511115611aa25781518083602001fd5b806040517f08c379a0000000000000000000000000000000000000000000000000000000008152600401611ad6919061295a565b60405180910390fd5b6040518060a00160405280600073ffffffffffffffffffffffffffffffffffffffff168152602001600073ffffffffffffffffffffffffffffffffffffffff1681526020016000815260200160008152602001600081525090565b6000604051905090565b600080fd5b6000819050919050565b611b5c81611b49565b8114611b6757600080fd5b50565b600081359050611b7981611b53565b92915050565b600073ffffffffffffffffffffffffffffffffffffffff82169050919050565b6000611baa82611b7f565b9050919050565b611bba81611b9f565b8114611bc557600080fd5b50565b600081359050611bd781611bb1565b92915050565b60008060408385031215611bf457611bf3611b44565b5b6000611c0285828601611b6a565b9250506020611c1385828601611bc8565b9150509250929050565b611c2681611b49565b82525050565b6000602082019050611c416000830184611c1d565b92915050565b600060208284031215611c5d57611c5c611b44565b5b6000611c6b84828501611b6a565b91505092915050565b600080fd5b6000601f19601f8301169050919050565b7f4e487b7100000000000000000000000000000000000000000000000000000000600052604160045260246000fd5b611cc282611c79565b810181811067ffffffffffffffff82111715611ce157611ce0611c8a565b5b80604052505050565b6000611cf4611b3a565b9050611d008282611cb9565b919050565b600060a08284031215611d1b57611d1a611c74565b5b611d2560a0611cea565b90506000611d3584828501611bc8565b6000830152506020611d4984828501611bc8565b6020830152506040611d5d84828501611b6a565b6040830152506060611d7184828501611b6a565b6060830152506080611d8584828501611b6a565b60808301525092915050565b600060a08284031215611da757611da6611b44565b5b6000611db584828501611d05565b91505092915050565b60008060408385031215611dd557611dd4611b44565b5b6000611de385828601611b6a565b9250506020611df485828601611b6a565b9150509250929050565b611e0781611b9f565b82525050565b611e1681611b49565b82525050565b60a082016000820151611e326000850182611dfe565b506020820151611e456020850182611dfe565b506040820151611e586040850182611e0d565b506060820151611e6b6060850182611e0d565b506080820151611e7e6080850182611e0d565b50505050565b600060a082019050611e996000830184611e1c565b92915050565b611ea881611b9f565b82525050565b6000819050919050565b6000611ed3611ece611ec984611b7f565b611eae565b611b7f565b9050919050565b6000611ee582611eb8565b9050919050565b6000611ef782611eda565b9050919050565b611f0781611eec565b82525050565b600061016082019050611f23600083018a611e9f565b611f306020830189611c1d565b611f3d6040830188611c1d565b611f4a6060830187611c1d565b611f576080830186611efe565b611f6460a0830185611efe565b611f7160c0830184611e1c565b98975050505050505050565b6000602082019050611f926000830184611e9f565b92915050565b600082825260208201905092915050565b7f4e6f7468696e6720746f20776974686472617700000000000000000000000000600082015250565b6000611fdf601383611f98565b9150611fea82611fa9565b602082019050919050565b6000602082019050818103600083015261200e81611fd2565b9050919050565b7f4e487b7100000000000000000000000000000000000000000000000000000000600052601160045260246000fd5b600061204f82611b49565b915061205a83611b49565b925082820390508181111561207257612071612015565b5b92915050565b7f496e76616c696420626c6f636b2072616e676500000000000000000000000000600082015250565b60006120ae601383611f98565b91506120b982612078565b602082019050919050565b600060208201905081810360008301526120dd816120a1565b9050919050565b7f5265776172642072617465206d75737420626520706f73697469766500000000600082015250565b600061211a601c83611f98565b9150612125826120e4565b602082019050919050565b600060208201905081810360008301526121498161210d565b9050919050565b600061215b82611b49565b91507fffffffffffffffffffffffffffffffffffffffffffffffffffffffffffffffff820361218d5761218c612015565b5b600182019050919050565b60006121a382611b49565b91506121ae83611b49565b92508282026121bc81611b49565b915082820484148315176121d3576121d2612015565b5b5092915050565b600060e0820190506121ef600083018a611c1d565b6121fc6020830189611e9f565b6122096040830188611e9f565b6122166060830187611e9f565b6122236080830186611c1d565b61223060a0830185611c1d565b61223d60c0830184611c1d565b98975050505050505050565b7f4661726d696e6720686173206e6f742073746172746564207965740000000000600082015250565b600061227f601b83611f98565b915061228a82612249565b602082019050919050565b600060208201905081810360008301526122ae81612272565b9050919050565b7f4661726d696e672068617320656e646564000000000000000000000000000000600082015250565b60006122eb601183611f98565b91506122f6826122b5565b602082019050919050565b6000602082019050818103600083015261231a816122de565b9050919050565b7f416d6f756e74206d7573742062652067726561746572207468616e2030000000600082015250565b6000612357601d83611f98565b915061236282612321565b602082019050919050565b600060208201905081810360008301526123868161234a565b9050919050565b600061239882611b49565b91506123a383611b49565b92508282019050808211156123bb576123ba612015565b5b92915050565b7f4e487b7100000000000000000000000000000000000000000000000000000000600052601260045260246000fd5b60006123fb82611b49565b915061240683611b49565b925082612416576124156123c1565b5b828204905092915050565b7f4f6e6c7920706f6f6c206f776e65722063616e2063616c6c207468697320667560008201527f6e6374696f6e0000000000000000000000000000000000000000000000000000602082015250565b600061247d602683611f98565b915061248882612421565b604082019050919050565b600060208201905081810360008301526124ac81612470565b9050919050565b7f496e73756666696369656e74207374616b656420616d6f756e74000000000000600082015250565b60006124e9601a83611f98565b91506124f4826124b3565b602082019050919050565b60006020820190508181036000830152612518816124dc565b9050919050565b7f4e6f207374616b6564204c5020746f6b656e7300000000000000000000000000600082015250565b6000612555601383611f98565b91506125608261251f565b602082019050919050565b6000602082019050818103600083015261258481612548565b9050919050565b60008151905061259a81611b53565b92915050565b6000602082840312156125b6576125b5611b44565b5b60006125c48482850161258b565b91505092915050565b7f5265656e7472616e637947756172643a207265656e7472616e742063616c6c00600082015250565b6000612603601f83611f98565b915061260e826125cd565b602082019050919050565b60006020820190508181036000830152612632816125f6565b9050919050565b600060408201905061264e6000830185611e9f565b61265b6020830184611c1d565b9392505050565b60006060820190506126776000830186611e9f565b6126846020830185611e9f565b6126916040830184611c1d565b949350505050565b60008115159050919050565b6126ae81612699565b81146126b957600080fd5b50565b6000815190506126cb816126a5565b92915050565b6000602082840312156126e7576126e6611b44565b5b60006126f5848285016126bc565b91505092915050565b7f5361666545524332303a204552433230206f7065726174696f6e20646964206e60008201527f6f74207375636365656400000000000000000000000000000000000000000000602082015250565b600061275a602a83611f98565b9150612765826126fe565b604082019050919050565b600060208201905081810360008301526127898161274d565b9050919050565b7f416464726573733a20696e73756666696369656e742062616c616e636520666f60008201527f722063616c6c0000000000000000000000000000000000000000000000000000602082015250565b60006127ec602683611f98565b91506127f782612790565b604082019050919050565b6000602082019050818103600083015261281b816127df565b9050919050565b600081519050919050565b600081905092915050565b60005b8381101561285657808201518184015260208101905061283b565b60008484015250505050565b600061286d82612822565b612877818561282d565b9350612887818560208601612838565b80840191505092915050565b600061289f8284612862565b915081905092915050565b7f416464726573733a2063616c6c20746f206e6f6e2d636f6e7472616374000000600082015250565b60006128e0601d83611f98565b91506128eb826128aa565b602082019050919050565b6000602082019050818103600083015261290f816128d3565b9050919050565b600081519050919050565b600061292c82612916565b6129368185611f98565b9350612946818560208601612838565b61294f81611c79565b840191505092915050565b600060208201905081810360008301526129748184612921565b90509291505056fea26469706673582212203b1bed76aa7524a966e6c739b67617cb67860c0e625f1830c712edb54d42462564736f6c634300081c0033",
  "linkReferences": {},
  "deployedLinkReferences": {}
}